:020000040800F2
:1000000000000220C90800081909000819090008A1
:100010001909000819090008190900080000000062
:1000200000000000000000000000000019090008A6
:100030001909000800000000190900085B07000802
:100040001909000819090008190900081909000808
:1000500019090008190900081909000819090008F8
:1000600019090008190900081909000819090008E8
:1000700019090008190900081909000819090008D8
:1000800019090008190900081909000800000000F2
:100090000000000000000000000000001909000836
:1000A00019090008190900081909000819090008A8
:1000B0001909000819090008190900081909000898
:1000C0001909000819090008190900081909000888
:1000D00019090008190900081909000800000000A2
:1000E0001909000819090008190900080000000092
:1000F00000000000000000000000000019090008D6
:100100000000000019090008690700081909000823
:1001100000000000000000000000000000000000DF
:100120001909000819090008190900081909000827
:100130001909000800000000000000000000000095
:100140000000000000000000000000001909000885
:1001500019090008190900081909000819090008F7
:10016000190900081909000800000000000000003B
:10017000000000000000000000000000000000007F
:100180000000000019090008000000000000000045
:08019000190900081909000813
:1001980010B5054C237833B9044B13B10448AFF3B9
:1001A80000800123237010BD0C0000200000000017
:1001B8006409000808B5034B1BB103490348AFF3B2
:1001C800008008BD0000000010000020640900083D
:1001D80010B504460E4B18784FF47A73B3FBF0F35E
:1001E8000C4A1068B0FBF3F000F08EF868B90F2CD9
:1001F80001D901200AE0002221464FF0FF3000F02B
:1002080043F8034B5C60002000E0012010BD00BFF4
:10021800000000200800002008B50B4B1A6842F4C3
:1002280000721A601A6842F480621A601A6842F40E
:1002380080721A60032000F015F80020FFF7C8FF4D
:1002480000F0E0FA002008BD003C0240034A1168B3
:10025800034B1B780B441360704700BF2800002035
:1002680000000020074AD36823F4E0631B041B0C3A
:10027800000200F4E060184340F0BF6040F4003032
:10028800D060704700ED00E030B4174BDB68C3F373
:100298000223C3F10704042C28BF04241D1D062DC6
:1002A80018D9033B4FF0FF3505FA04F421EA04019D
:1002B800994005FA03F322EA0303194300280BDBEC
:1002C8000901C9B200F1604000F5614080F80013EF
:1002D80030BC70470023E5E700F00F000901C9B200
:1002E800024B1954F4E700BF00ED00E014ED00E004
:1002F80000F01F02400901239340024A42F82030CF
:10030800704700BF00E100E00138B0F1807F0AD2F9
:10031800064B5860064AF02182F8231000209860A6
:1003280007221A6070470120704700BF10E000E004
:1003380000ED00E0704708B5FFF7FCFF08BD0000BE
:1003480000230F2B00F2C580F0B482B039E00422FC
:1003580000E00022B2403A4302345E4E46F82420C0
:100368005D4A1468EA4302EA04064F6817F4803FBE
:1003780001D045EA0406584C2660646802EA04067F
:100388004F6817F4003F01D045EA0406524C6660F6
:10039800A46802EA04064F6817F4801F01D045EAF2
:1003A80004064D4CA660E46822404E6816F4001F0F
:1003B80001D045EA0402484CE26001330F2B00F2F9
:1003C800858001229A400C6804EA0205AA42F4D109
:1003D8004C68022C01D0122C10D1DE08083650F8D7
:1003E80026C003F00704A7000F24BC402CEA040C25
:1003F8000C69BC4044EA0C0440F8264004685F00DD
:100408000326BE40F64306EA040C4C6804F00304D5
:10041800BC4044EA0C0404604C6804F1FF3CBCF1A5
:10042800010F03D9112C01D0122C10D1846806EACF
:10043800040CCC68BC4044EA0C048460446824EA98
:1004480002024C68C4F300149C4014434460C26820
:1004580016408A68BA403243C2604A6812F0805F28
:10046800ABD0002201921D4A546C44F48044546479
:10047800526C02F480420192019A9C08A61C154A0B
:1004880052F8267003F0030296000F22B24027EAC2
:100498000207134A90423FF45CAF02F58062904233
:1004A8000ED002F5806290420CD002F58062904234
:1004B8000AD002F5806290423FF449AF072249E72B
:1004C800012247E7022245E7032243E702B0F0BCD6
:1004D8007047704700380140003C01400038024036
:1004E8000000024043695940416170470268D3687F
:1004F80043F00103D3600268136843F001031360FB
:1005080000207047704770477047704710B5044621
:1005180003681A6912F0020F11D0DA6812F0020F9C
:100528000DD06FF002021A610123037603689B69FC
:1005380013F0030F70D0FFF7E6FF0023237623683C
:100548001A6912F0040F12D0DA6812F0040F0ED0F4
:100558006FF004021A610223237623689B6913F45F
:10056800407F5FD02046FFF7CEFF00232376236825
:100578001A6912F0080F12D0DA6812F0080F0ED0BC
:100588006FF008021A61042323762368DB6913F0ED
:10059800030F4ED02046FFF7B6FF002323762368CB
:1005A8001A6912F0100F12D0DA6812F0100F0ED07C
:1005B8006FF010021A61082323762368DB6913F4AD
:1005C800407F3DD02046FFF79EFF00232376236817
:1005D8001A6912F0010F03D0DA6812F0010F36D150
:1005E80023681A6912F0800F03D0DA6812F0800FBE
:1005F80034D123681A6912F0400F03D0DA6812F078
:10060800400F32D123681A6912F0200F03D0DA683C
:1006180012F0200F30D110BDFFF774FF2046FFF70E
:1006280073FF8AE72046FFF76DFF2046FFF76CFF50
:100638009BE72046FFF766FF2046FFF765FFACE71C
:100648002046FFF75FFF2046FFF75EFFBDE76FF02C
:1006580001021A61204600F0A9F8C1E76FF0800294
:100668001A61204600F074F8C3E76FF040021A617F
:100678002046FFF74AFFC5E76FF020021A612046BF
:1006880000F065F8C7E700000368234A90420ED0DF
:10069800B0F1804F0BD0A2F57C42904207D002F512
:1006A8008062904203D002F58062904203D123F029
:1006B80070034A681343184A90421AD0B0F1804F29
:1006C80017D0A2F57C42904213D002F58062904286
:1006D8000FD002F5806290420BD002F59A32904218
:1006E80007D002F58062904203D002F58062904202
:1006F80003D123F44073CA68134303608B68C36251
:100708000B688362044B984202D00123436170470F
:100718000B690363F9E700BF00000140A8B110B5F9
:10072800044690F839305BB1022384F83930211D32
:100738002068FFF7A9FF012384F83930002010BD95
:1007480080F8383000F07CF8EEE7012070477047F9
:10075800704708B5FFF77AFDFFF7EDFD08BD00000B
:1007680008B50248FFF7D2FE08BD00BF2C000020E4
:1007780000B587B0002100910A4B1A6B42F00102C4
:100788001A631B6B03F001030093009B2023019362
:1007980001230293039101A90348FFF7D1FD07B094
:1007A8005DF804FB003802400000024008B5202133
:1007B8000148FFF797FE08BD00000240FEE7000071
:1007C80008B50648064B036018234360054BC36011
:1007D800FFF7A4FF00B908BDFFF7F0FF2C000020C9
:1007E800000C0040BFD4010008B5FFF715FDFFF766
:1007F800BFFFFFF7E5FF0248FFF778FEFEE700BFFF
:100808002C00002008B50320FFF72CFD0B4A536A83
:1008180043F4E0235362002211466FF00B00FFF708
:1008280033FD002211466FF00A00FFF72DFD00226C
:1008380011466FF00900FFF727FD08BD00ED00E045
:1008480010B582B000240194094B1A6C42F00802DA
:100858001A641B6C03F008030193019B3220FFF715
:1008680047FD22460F213220FFF70EFD02B010BDD2
:10087800003802400F49D1F8883043F47003C1F8BA
:1008880088300D4B1A6842F001021A600020986007
:100898001A6822F0847222F480321A60074A5A6079
:1008A8001A6822F480221A60D8604FF000638B60C7
:1008B800704700BF00ED00E000380240103000240F
:1008C800DFF834D0002103E00C4B5B58435004316F
:1008D8000B480C4B42189A42F6D30B4A02E000230D
:1008E80042F8043B094B9A42F9D3FFF7C3FF00F0E3
:1008F80011F8FFF779FF704700000220840900080B
:10090800000000200C0000200C00002068000020DF
:10091800FEE7000070B50D4E0D4CA41BA410002579
:10092800A54209D10B4E0C4C00F018F8A41BA410DA
:100938000025A54205D170BD56F8253098470135E8
:10094800EEE756F8253098470135F2E77C090008AC
:100958007C0900087C09000880090008F8B500BF78
:10096800F8BC08BC9E467047F8B500BFF8BC08BC88
:040978009E467047E0
:04097C00BD010008B1
:0409800099010008D1
:0C09840001000000100000000024F4003E
:04000005080008C91E
:00000001FF
